{
  "contractName": "MyContract",
  "abi": [
    {
      "inputs": [],
      "stateMutability": "nonpayable",
      "type": "constructor"
    },
    {
      "inputs": [],
      "name": "myNumber",
      "outputs": [
        {
          "internalType": "uint256",
          "name": "",
          "type": "uint256"
        }
      ],
      "stateMutability": "view",
      "type": "function"
    }
  ],
  "bytecode": "0x6080604052348015600e575f80fd5b50602a5f55607980601e5f395ff3fe6080604052348015600e575f80fd5b50600436106026575f3560e01c806323fd0e4014602a575b5f80fd5b60315f5481565b60405190815260200160405180910390f3fea26469706673582212209258a19d6d42b79018ffa5c4e247e55b2dbc62cc53be20f015638a1692e0c0d364736f6c63430008180033",
  "immutableReferences": {},
  "source": "// SPDX-License-Identifier: MIT\r\npragma solidity ^0.8.0;\r\n\r\ncontract MyContract {\r\n    uint256 public myNumber;\r\n\r\n    constructor() {\r\n        myNumber = 42;\r\n    }\r\n}",
  "sourcePath": "C:\\Users\\Mayank Singh\\Desktop\\Stuff\\VoTru\\contracts\\Voting.sol",
  "compiler": {
    "name": "solc",
    "version": "0.8.24+commit.e11b9ed9.Emscripten.clang"
  },
  "schemaVersion": "3.4.16",
  "updatedAt": "2024-03-09T05:50:51.460Z",
  "devdoc": {
    "kind": "dev",
    "methods": {},
    "version": 1
  },
  "userdoc": {
    "kind": "user",
    "methods": {},
    "version": 1
  }
}